{
  "contractName": "SimpleLunarDeed",
  "abi": [
    {
      "inputs": [
        {
          "internalType": "address",
          "name": "_lawyer",
          "type": "address"
        },
        {
          "internalType": "address payable",
          "name": "_beneficiary",
          "type": "address"
        },
        {
          "internalType": "uint256",
          "name": "duration",
          "type": "uint256"
        }
      ],
      "payable": true,
      "stateMutability": "payable",
      "type": "constructor"
    },
    {
      "constant": true,
      "inputs": [],
      "name": "beneficiary",
      "outputs": [
        {
          "internalType": "address payable",
          "name": "",
          "type": "address"
        }
      ],
      "payable": false,
      "stateMutability": "view",
      "type": "function"
    },
    {
      "constant": true,
      "inputs": [],
      "name": "dateToTransfer",
      "outputs": [
        {
          "internalType": "uint256",
          "name": "",
          "type": "uint256"
        }
      ],
      "payable": false,
      "stateMutability": "view",
      "type": "function"
    },
    {
      "constant": true,
      "inputs": [],
      "name": "lawyer",
      "outputs": [
        {
          "internalType": "address",
          "name": "",
          "type": "address"
        }
      ],
      "payable": false,
      "stateMutability": "view",
      "type": "function"
    },
    {
      "constant": false,
      "inputs": [],
      "name": "transferDeed",
      "outputs": [],
      "payable": false,
      "stateMutability": "nonpayable",
      "type": "function"
    }
  ],
  "bytecode": "0x60806040526040516104273803806104278339818101604052606081101561002657600080fd5b81019080805190602001909291908051906020019092919080519060200190929190505050826000806101000a81548173ffffffffffffffffffffffffffffffffffffffff021916908373ffffffffffffffffffffffffffffffffffffffff16021790555081600160006101000a81548173ffffffffffffffffffffffffffffffffffffffff021916908373ffffffffffffffffffffffffffffffffffffffff160217905550804201600281905550505050610340806100e76000396000f3fe608060405234801561001057600080fd5b506004361061004c5760003560e01c8063055c65231461005157806338af3eed1461005b5780633bfb6e31146100a5578063bc3a4776146100ef575b600080fd5b61005961010d565b005b610063610295565b604051808273ffffffffffffffffffffffffffffffffffffffff1673ffffffffffffffffffffffffffffffffffffffff16815260200191505060405180910390f35b6100ad6102bb565b604051808273ffffffffffffffffffffffffffffffffffffffff1673ffffffffffffffffffffffffffffffffffffffff16815260200191505060405180910390f35b6100f76102e0565b6040518082815260200191505060405180910390f35b6000809054906101000a900473ffffffffffffffffffffffffffffffffffffffff1673ffffffffffffffffffffffffffffffffffffffff163373ffffffffffffffffffffffffffffffffffffffff16146101cf576040517f08c379a00000000000000000000000000000000000000000000000000000000081526004018080602001828103825260168152602001807f4e6f7420746865207269676874204172626974726f720000000000000000000081525060200191505060405180910390fd5b60025442101561022a576040517f08c379a00000000000000000000000000000000000000000000000000000000081526004018080602001828103825260258152602001806102e76025913960400191505060405180910390fd5b600160009054906101000a900473ffffffffffffffffffffffffffffffffffffffff1673ffffffffffffffffffffffffffffffffffffffff166108fc479081150290604051600060405180830381858888f19350505050158015610292573d6000803e3d6000fd5b50565b600160009054906101000a900473ffffffffffffffffffffffffffffffffffffffff1681565b6000809054906101000a900473ffffffffffffffffffffffffffffffffffffffff1681565b6002548156fe546f6f206561726c7920666f7220746865204c616e642056616c7565205472616e73666572a265627a7a723158207caa2ab52140adb0236b493cc6588e631962d954bd746b294dbb0d8f05313c6b64736f6c63430005100032",
  "source": "// Clayming Space: MIT License\n\npragma solidity >=0.4.21 <0.7.0;\n\n/// @title A Simple Lunar Deed\n/// @author witwiki\n/// @notice A simple Deed to Lunar Property that transfers the value of the Land to the Beneficiary where an arbitrar (aka Lawyer) is responsible for the transfer process.\n/// @dev n/a\n\ncontract SimpleLunarDeed {\n  address public lawyer;\n  address payable public beneficiary;\n  uint public dateToTransfer;\n\n  constructor(\n    address _lawyer,\n    address payable _beneficiary,\n    uint duration\n  ) payable public\n  {\n    lawyer = _lawyer;\n    beneficiary = _beneficiary;\n    dateToTransfer = now + duration;\n  }\n\n  function transferDeed() public {\n    require(msg.sender == lawyer, 'Not the right Arbitror');\n    require(now >= dateToTransfer, 'Too early for the Land Value Transfer');\n    beneficiary.transfer(address(this).balance);\n  }\n\n\n\n}\n",
  "sourcePath": "C:/Users/vicku/Documents/GitHub/space-dapps-30/stardate_7/contracts/SimpleLunarDeed.sol",
  "compiler": {
    "name": "solc",
    "version": "0.5.16+commit.9c3226ce.Emscripten.clang"
  },
  "schemaVersion": "3.3.4",
  "updatedAt": "2021-03-30T03:48:33.618Z",
  "networkType": "ethereum",
  "devdoc": {
    "author": "witwiki",
    "details": "n/a",
    "methods": {},
    "title": "A Simple Lunar Deed"
  },
  "userdoc": {
    "methods": {},
    "notice": "A simple Deed to Lunar Property that transfers the value of the Land to the Beneficiary where an arbitrar (aka Lawyer) is responsible for the transfer process."
  }
}