{
  "contractName": "LunarEscrow",
  "abi": [
    {
      "inputs": [
        {
          "internalType": "address payable",
          "name": "_pBuyer",
          "type": "address"
        },
        {
          "internalType": "address",
          "name": "_pSeller",
          "type": "address"
        },
        {
          "internalType": "uint256",
          "name": "_salePrice",
          "type": "uint256"
        }
      ],
      "payable": true,
      "stateMutability": "payable",
      "type": "constructor"
    },
    {
      "constant": true,
      "inputs": [],
      "name": "pBuyer",
      "outputs": [
        {
          "internalType": "address payable",
          "name": "",
          "type": "address"
        }
      ],
      "payable": false,
      "stateMutability": "view",
      "type": "function"
    },
    {
      "constant": true,
      "inputs": [],
      "name": "pSeller",
      "outputs": [
        {
          "internalType": "address",
          "name": "",
          "type": "address"
        }
      ],
      "payable": false,
      "stateMutability": "view",
      "type": "function"
    },
    {
      "constant": true,
      "inputs": [],
      "name": "reAgent",
      "outputs": [
        {
          "internalType": "address",
          "name": "",
          "type": "address"
        }
      ],
      "payable": false,
      "stateMutability": "view",
      "type": "function"
    },
    {
      "constant": true,
      "inputs": [],
      "name": "getBalance",
      "outputs": [
        {
          "internalType": "uint256",
          "name": "",
          "type": "uint256"
        }
      ],
      "payable": false,
      "stateMutability": "view",
      "type": "function"
    },
    {
      "constant": true,
      "inputs": [],
      "name": "releaseFunds",
      "outputs": [],
      "payable": false,
      "stateMutability": "view",
      "type": "function"
    },
    {
      "constant": false,
      "inputs": [],
      "name": "depositFunds",
      "outputs": [],
      "payable": true,
      "stateMutability": "payable",
      "type": "function"
    }
  ],
  "bytecode": "0x60806040526040516106123803806106128339818101604052606081101561002657600080fd5b81019080805190602001909291908051906020019092919080519060200190929190505050826000806101000a81548173ffffffffffffffffffffffffffffffffffffffff021916908373ffffffffffffffffffffffffffffffffffffffff16021790555081600160006101000a81548173ffffffffffffffffffffffffffffffffffffffff021916908373ffffffffffffffffffffffffffffffffffffffff16021790555033600360006101000a81548173ffffffffffffffffffffffffffffffffffffffff021916908373ffffffffffffffffffffffffffffffffffffffff160217905550806002819055505050506104ec806101266000396000f3fe6080604052600436106100555760003560e01c806312065fe01461005a57806328983de81461008557806369d89575146100dc57806394caa624146100f3578063e2c41dbc1461014a578063f043d16314610154575b600080fd5b34801561006657600080fd5b5061006f6101ab565b6040518082815260200191505060405180910390f35b34801561009157600080fd5b5061009a6101b3565b604051808273ffffffffffffffffffffffffffffffffffffffff1673ffffffffffffffffffffffffffffffffffffffff16815260200191505060405180910390f35b3480156100e857600080fd5b506100f16101d8565b005b3480156100ff57600080fd5b506101086102f7565b604051808273ffffffffffffffffffffffffffffffffffffffff1673ffffffffffffffffffffffffffffffffffffffff16815260200191505060405180910390f35b61015261031d565b005b34801561016057600080fd5b5061016961043c565b604051808273ffffffffffffffffffffffffffffffffffffffff1673ffffffffffffffffffffffffffffffffffffffff16815260200191505060405180910390f35b600047905090565b6000809054906101000a900473ffffffffffffffffffffffffffffffffffffffff1681565b600360009054906101000a900473ffffffffffffffffffffffffffffffffffffffff1673ffffffffffffffffffffffffffffffffffffffff163373ffffffffffffffffffffffffffffffffffffffff161461029b576040517f08c379a000000000000000000000000000000000000000000000000000000000815260040180806020018281038252601f8152602001807f4e6f7420746865207269676874205265616c20457374617465204167656e740081525060200191505060405180910390fd5b60025447146102f5576040517f08c379a00000000000000000000000000000000000000000000000000000000081526004018080602001828103825260338152602001806104636033913960400191505060405180910390fd5b565b600160009054906101000a900473ffffffffffffffffffffffffffffffffffffffff1681565b3373ffffffffffffffffffffffffffffffffffffffff166000809054906101000a900473ffffffffffffffffffffffffffffffffffffffff1673ffffffffffffffffffffffffffffffffffffffff16146103df576040517f08c379a00000000000000000000000000000000000000000000000000000000081526004018080602001828103825260138152602001807f4e6f74207468652072696768742062757965720000000000000000000000000081525060200191505060405180910390fd5b60025447111561043a576040517f08c379a00000000000000000000000000000000000000000000000000000000081526004018080602001828103825260228152602001806104966022913960400191505060405180910390fd5b565b600360009054906101000a900473ffffffffffffffffffffffffffffffffffffffff168156fe4e6f74207468652066756c6c2053616c652056616c756520686173206265656e2073656e7420746f2074686520457363726f7753616c652056616c7565206d6f7265207468616e20457363726f7720616d6f756e74a265627a7a72315820c59e83508667c8cf86ca794905317e3c8ab56f8b673671b6ae3c9751fd5a76e464736f6c63430005100032",
  "source": "// Clayming Space: MIT License\r\n\r\npragma solidity >=0.4.21 <0.7.0;\r\n\r\n/// @title An Escrow for a Lunar Property Purchase\r\n/// @author witwiki\r\n/// @notice Two parties buying a house on Luna with a middle-man agent Escrow.\r\n/// @dev n/a\r\n\r\ncontract LunarEscrow {\r\n    address payable public pBuyer;\r\n    address public pSeller;\r\n    uint saleValue;\r\n    address public reAgent;\r\n\r\n    constructor(\r\n        address payable _pBuyer,\r\n        address _pSeller,\r\n        uint _salePrice\r\n    ) payable public {\r\n        pBuyer = _pBuyer;\r\n        pSeller = _pSeller;\r\n        reAgent = msg.sender;\r\n        saleValue = _salePrice;\r\n    }\r\n\r\n    //  Get Balance of the address\r\n    function getBalance() view public returns (uint) {\r\n        return address(this).balance;        \r\n    }\r\n\r\n    //  Function to release funds from Escrow\r\n    function releaseFunds() view public {\r\n        // require the right Real Estate Agent\r\n        require(msg.sender == reAgent, 'Not the right Real Estate Agent');\r\n        // ensure all funds being released\r\n        require(address(this).balance == saleValue, 'Not the full Sale Value has been sent to the Escrow');        \r\n    }\r\n\r\n    //  Function to deposit the funds into the Escrow\r\n    function depositFunds() payable public {\r\n        // require the depositer is the right address\r\n        require(pBuyer == msg.sender, 'Not the right buyer');\r\n        // require the deposit is not more than defined by the Escrow contract\r\n        require(address(this).balance <= saleValue, 'Sale Value more than Escrow amount');\r\n    }\r\n}",
  "sourcePath": "C:/Users/vicku/Documents/GitHub/space-dapps-30/stardate_9/contracts/LunarEscrow.sol",
  "compiler": {
    "name": "solc",
    "version": "0.5.16+commit.9c3226ce.Emscripten.clang"
  },
  "schemaVersion": "3.3.4",
  "updatedAt": "2021-04-01T03:52:01.151Z",
  "networkType": "ethereum",
  "devdoc": {
    "author": "witwiki",
    "details": "n/a",
    "methods": {},
    "title": "An Escrow for a Lunar Property Purchase"
  },
  "userdoc": {
    "methods": {},
    "notice": "Two parties buying a house on Luna with a middle-man agent Escrow."
  }
}