{
  "contractName": "Crud",
  "abi": [
    {
      "constant": true,
      "inputs": [],
      "name": "nxtId",
      "outputs": [
        {
          "internalType": "uint256",
          "name": "",
          "type": "uint256"
        }
      ],
      "payable": false,
      "stateMutability": "view",
      "type": "function"
    },
    {
      "constant": true,
      "inputs": [
        {
          "internalType": "uint256",
          "name": "",
          "type": "uint256"
        }
      ],
      "name": "users",
      "outputs": [
        {
          "internalType": "uint256",
          "name": "id",
          "type": "uint256"
        },
        {
          "internalType": "string",
          "name": "name",
          "type": "string"
        }
      ],
      "payable": false,
      "stateMutability": "view",
      "type": "function"
    },
    {
      "constant": false,
      "inputs": [
        {
          "internalType": "string",
          "name": "userName",
          "type": "string"
        }
      ],
      "name": "createUser",
      "outputs": [],
      "payable": false,
      "stateMutability": "nonpayable",
      "type": "function"
    },
    {
      "constant": true,
      "inputs": [
        {
          "internalType": "uint256",
          "name": "id",
          "type": "uint256"
        }
      ],
      "name": "readUser",
      "outputs": [
        {
          "internalType": "uint256",
          "name": "",
          "type": "uint256"
        },
        {
          "internalType": "string",
          "name": "",
          "type": "string"
        }
      ],
      "payable": false,
      "stateMutability": "view",
      "type": "function"
    },
    {
      "constant": false,
      "inputs": [
        {
          "internalType": "uint256",
          "name": "i",
          "type": "uint256"
        },
        {
          "internalType": "string",
          "name": "userName",
          "type": "string"
        }
      ],
      "name": "updateDetails",
      "outputs": [],
      "payable": false,
      "stateMutability": "nonpayable",
      "type": "function"
    },
    {
      "constant": false,
      "inputs": [
        {
          "internalType": "uint256",
          "name": "i",
          "type": "uint256"
        }
      ],
      "name": "deleteUser",
      "outputs": [],
      "payable": false,
      "stateMutability": "nonpayable",
      "type": "function"
    }
  ],
  "bytecode": "0x60806040526001805534801561001457600080fd5b506108eb806100246000396000f3fe608060405234801561001057600080fd5b50600436106100625760003560e01c80630d70e5d014610067578063365b98b21461011557806338f14845146101c3578063507ffba5146101f15780637e4ebfed146102ac578063957c5d9c146102ca575b600080fd5b6100936004803603602081101561007d57600080fd5b810190808035906020019092919050505061038f565b6040518083815260200180602001828103825283818151815260200191508051906020019080838360005b838110156100d95780820151818401526020810190506100be565b50505050905090810190601f1680156101065780820380516001836020036101000a031916815260200191505b50935050505060405180910390f35b6101416004803603602081101561012b57600080fd5b8101908080359060200190929190505050610483565b6040518083815260200180602001828103825283818151815260200191508051906020019080838360005b8381101561018757808201518184015260208101905061016c565b50505050905090810190601f1680156101b45780820380516001836020036101000a031916815260200191505b50935050505060405180910390f35b6101ef600480360360208110156101d957600080fd5b810190808035906020019092919050505061054c565b005b6102aa6004803603602081101561020757600080fd5b810190808035906020019064010000000081111561022457600080fd5b82018360208201111561023657600080fd5b8035906020019184600183028401116401000000008311171561025857600080fd5b91908080601f016020809104026020016040519081016040528093929190818152602001838380828437600081840152601f19601f820116905080830192505050505050509192919290505050610593565b005b6102b4610616565b6040518082815260200191505060405180910390f35b61038d600480360360408110156102e057600080fd5b81019080803590602001909291908035906020019064010000000081111561030757600080fd5b82018360208201111561031957600080fd5b8035906020019184600183028401116401000000008311171561033b57600080fd5b91908080601f016020809104026020016040519081016040528093929190818152602001838380828437600081840152601f19601f82011690508083019250505050505050919291929050505061061c565b005b60006060600061039e84610684565b9050600081815481106103ad57fe5b906000526020600020906002020160000154600082815481106103cc57fe5b9060005260206000209060020201600101808054600181600116156101000203166002900480601f0160208091040260200160405190810160405280929190818152602001828054600181600116156101000203166002900480156104725780601f1061044757610100808354040283529160200191610472565b820191906000526020600020905b81548152906001019060200180831161045557829003601f168201915b505050505090509250925050915091565b6000818154811061049057fe5b9060005260206000209060020201600091509050806000015490806001018054600181600116156101000203166002900480601f0160208091040260200160405190810160405280929190818152602001828054600181600116156101000203166002900480156105425780601f1061051757610100808354040283529160200191610542565b820191906000526020600020905b81548152906001019060200180831161052557829003601f168201915b5050505050905082565b600061055782610684565b90506000818154811061056657fe5b906000526020600020906002020160008082016000905560018201600061058d9190610749565b50505050565b60006040518060400160405280600154815260200183815250908060018154018082558091505090600182039060005260206000209060020201600090919290919091506000820151816000015560208201518160010190805190602001906105fd929190610791565b5050505060016000815480929190600101919050555050565b60015481565b600061062783610684565b9050826000828154811061063757fe5b906000526020600020906002020160000181905550816000828154811061065a57fe5b9060005260206000209060020201600101908051906020019061067e929190610811565b50505050565b600080600090505b6000805490508110156106d55782600082815481106106a757fe5b90600052602060002090600202016000015414156106c85780915050610744565b808060010191505061068c565b506040517f08c379a00000000000000000000000000000000000000000000000000000000081526004018080602001828103825260138152602001807f5573657220646f6573206e6f742065786973740000000000000000000000000081525060200191505060405180910390fd5b919050565b50805460018160011615610100020316600290046000825580601f1061076f575061078e565b601f01602090049060005260206000209081019061078d9190610891565b5b50565b828054600181600116156101000203166002900490600052602060002090601f016020900481019282601f106107d257805160ff1916838001178555610800565b82800160010185558215610800579182015b828111156107ff5782518255916020019190600101906107e4565b5b50905061080d9190610891565b5090565b828054600181600116156101000203166002900490600052602060002090601f016020900481019282601f1061085257805160ff1916838001178555610880565b82800160010185558215610880579182015b8281111561087f578251825591602001919060010190610864565b5b50905061088d9190610891565b5090565b6108b391905b808211156108af576000816000905550600101610897565b5090565b9056fea265627a7a7231582025066197d4ca09ba82f1629c622577bf23fceb1d8ab14c3549b657f55b60ca5d64736f6c63430005100032",
  "source": "// SPDX-License-Identifier: MIT\npragma solidity >=0.4.21 <0.7.0;\n\ncontract Crud {\n  struct User {\n    uint id;\n    string name;\n  }\n  User[] public users;\n  uint public nxtId = 1;\n\n  // creates a new user\n  function createUser(string memory userName) public {\n    users.push(User(nxtId, userName));\n    nxtId++;\n  }\n\n  // reads (like a getter) user ID and name\n  function readUser(uint id) view public returns(uint, string memory) {\n    uint x = findUser(id);\n    return(users[x].id, users[x].name);\n  }\n\n  // search user by id\n  function findUser(uint id) view internal returns(uint) {\n    for (uint i=0; i < users.length; i++) {\n      if (users[i].id == id) {\n        return i;\n      }\n    }\n    revert('User does not exist');\n  }\n\n  //  updates user's details\n  function updateDetails(uint i, string memory userName) public {\n    uint y = findUser(i);\n    users[y].id = i;\n    users[y].name = userName;\n  }\n\n  function deleteUser(uint i) public {\n    uint z = findUser(i);\n    delete users[z];\n  }\n\n}\n",
  "sourcePath": "C:/Users/vicku/Documents/GitHub/space-dapps-30/stardate_4/contracts/Crud.sol",
  "compiler": {
    "name": "solc",
    "version": "0.5.16+commit.9c3226ce.Emscripten.clang"
  },
  "schemaVersion": "3.3.4",
  "updatedAt": "2021-03-27T02:07:15.503Z",
  "networkType": "ethereum",
  "devdoc": {
    "methods": {}
  },
  "userdoc": {
    "methods": {}
  }
}