{
  "contractName": "Wallet",
  "abi": [
    {
      "inputs": [
        {
          "internalType": "address payable",
          "name": "_owner",
          "type": "address"
        }
      ],
      "payable": false,
      "stateMutability": "nonpayable",
      "type": "constructor"
    },
    {
      "constant": true,
      "inputs": [],
      "name": "walletOwnr",
      "outputs": [
        {
          "internalType": "address payable",
          "name": "",
          "type": "address"
        }
      ],
      "payable": false,
      "stateMutability": "view",
      "type": "function"
    },
    {
      "constant": false,
      "inputs": [
        {
          "internalType": "address payable",
          "name": "toSend",
          "type": "address"
        },
        {
          "internalType": "uint256",
          "name": "amount",
          "type": "uint256"
        }
      ],
      "name": "sendFunds",
      "outputs": [],
      "payable": true,
      "stateMutability": "payable",
      "type": "function"
    },
    {
      "constant": true,
      "inputs": [],
      "name": "getWalletBalance",
      "outputs": [
        {
          "internalType": "uint256",
          "name": "",
          "type": "uint256"
        }
      ],
      "payable": false,
      "stateMutability": "view",
      "type": "function"
    }
  ],
  "bytecode": "0x608060405234801561001057600080fd5b506040516103123803806103128339818101604052602081101561003357600080fd5b8101908080519060200190929190505050806000806101000a81548173ffffffffffffffffffffffffffffffffffffffff021916908373ffffffffffffffffffffffffffffffffffffffff1602179055505061027e806100946000396000f3fe6080604052600436106100345760003560e01c8063329a27e7146100395780636f64234e14610064578063dbfe118a146100b2575b600080fd5b34801561004557600080fd5b5061004e610109565b6040518082815260200191505060405180910390f35b6100b06004803603604081101561007a57600080fd5b81019080803573ffffffffffffffffffffffffffffffffffffffff16906020019092919080359060200190929190505050610111565b005b3480156100be57600080fd5b506100c7610224565b604051808273ffffffffffffffffffffffffffffffffffffffff1673ffffffffffffffffffffffffffffffffffffffff16815260200191505060405180910390f35b600047905090565b6000809054906101000a900473ffffffffffffffffffffffffffffffffffffffff1673ffffffffffffffffffffffffffffffffffffffff163373ffffffffffffffffffffffffffffffffffffffff1614156101b2578173ffffffffffffffffffffffffffffffffffffffff166108fc829081150290604051600060405180830381858888f193505050501580156101ac573d6000803e3d6000fd5b50610220565b6040517f08c379a00000000000000000000000000000000000000000000000000000000081526004018080602001828103825260138152602001807f4e6f7420746865207269676874206f776e65720000000000000000000000000081525060200191505060405180910390fd5b5050565b6000809054906101000a900473ffffffffffffffffffffffffffffffffffffffff168156fea265627a7a72315820a152075edc7683c083f52fe456f62006803640426a49b363421ccbfcaa0c0c3864736f6c63430005100032",
  "source": "// SPDX-License-Identifier: MIT\n// My personal Bank with all my accounts needed for financial transactions\npragma solidity >=0.4.21 <0.7.0;\n\ncontract Wallet {\n  address payable public walletOwnr;\n\n  //  Defining the Wallet on Creation\n  constructor(address payable _owner) public {\n    walletOwnr = _owner;\n  }\n\n  //  Send Funds\n  function sendFunds(address payable toSend, uint amount) payable public {\n    // check is its the owner\n    if (msg.sender == walletOwnr) {\n      toSend.transfer(amount);\n      return;\n    }\n    revert(\"Not the right owner\");\n  }\n\n  //  Get Balance\n  function getWalletBalance() view public returns (uint) {\n    return address(this).balance;\n  }\n\n}\n",
  "sourcePath": "C:/Users/vicku/Documents/GitHub/space-dapps-30/stardate_5/contracts/Wallet.sol",
  "compiler": {
    "name": "solc",
    "version": "0.5.16+commit.9c3226ce.Emscripten.clang"
  },
  "schemaVersion": "3.3.4",
  "updatedAt": "2021-03-29T03:39:16.947Z",
  "networkType": "ethereum",
  "devdoc": {
    "methods": {}
  },
  "userdoc": {
    "methods": {}
  }
}