{
  "contractName": "Fibonacci",
  "abi": [
    {
      "constant": true,
      "inputs": [
        {
          "internalType": "uint256",
          "name": "num",
          "type": "uint256"
        }
      ],
      "name": "executeFib",
      "outputs": [
        {
          "internalType": "uint256",
          "name": "",
          "type": "uint256"
        }
      ],
      "payable": false,
      "stateMutability": "pure",
      "type": "function"
    }
  ],
  "bytecode": "0x608060405234801561001057600080fd5b5060f18061001f6000396000f3fe6080604052348015600f57600080fd5b506004361060285760003560e01c8063bd658c6714602d575b600080fd5b605660048036036020811015604157600080fd5b8101908080359060200190929190505050606c565b6040518082815260200191505060405180910390f35b600080821415607d576000905060b7565b60006001905060006001905060008090505b8481101560b05760008284019050839250809350508080600101915050608f565b5081925050505b91905056fea265627a7a7231582050374a18bfe8b78e006ef411ed49dd577f9151724227b04eb2b23260d57ddee664736f6c63430005100032",
  "source": "pragma solidity >=0.4.21 <0.7.0;\r\n\r\ncontract Fibonacci {\r\n\r\n    function executeFib(uint num) pure external returns (uint) {\r\n        if (num == 0) {\r\n            return 0;\r\n        } \r\n        uint f1 = 1;\r\n        uint f2 = 1;\r\n        for (uint j = 0; j < num; j++) {\r\n            uint f = f1 + f2;\r\n            f2 = f1;\r\n            f1 = f;            \r\n        }\r\n\r\n        return f1;\r\n    }\r\n}",
  "sourcePath": "C:/Users/vicku/Documents/GitHub/space-dapps-30/stardate_10/contracts/Fibonacci.sol",
  "compiler": {
    "name": "solc",
    "version": "0.5.16+commit.9c3226ce.Emscripten.clang"
  },
  "schemaVersion": "3.3.4",
  "updatedAt": "2021-04-12T05:07:05.617Z",
  "devdoc": {
    "methods": {}
  },
  "userdoc": {
    "methods": {}
  }
}