{
  "contractName": "SuperString",
  "abi": [
    {
      "constant": true,
      "inputs": [
        {
          "internalType": "string",
          "name": "str",
          "type": "string"
        }
      ],
      "name": "strLength",
      "outputs": [
        {
          "internalType": "uint256",
          "name": "",
          "type": "uint256"
        }
      ],
      "payable": false,
      "stateMutability": "pure",
      "type": "function"
    },
    {
      "constant": true,
      "inputs": [
        {
          "internalType": "string",
          "name": "strOne",
          "type": "string"
        },
        {
          "internalType": "string",
          "name": "strTwo",
          "type": "string"
        }
      ],
      "name": "concatString",
      "outputs": [
        {
          "internalType": "string",
          "name": "",
          "type": "string"
        }
      ],
      "payable": false,
      "stateMutability": "pure",
      "type": "function"
    }
  ],
  "bytecode": "0x608060405234801561001057600080fd5b50610468806100206000396000f3fe608060405234801561001057600080fd5b50600436106100365760003560e01c80631f9e05151461003b5780635bb96f1f1461010a575b600080fd5b6100f46004803603602081101561005157600080fd5b810190808035906020019064010000000081111561006e57600080fd5b82018360208201111561008057600080fd5b803590602001918460018302840111640100000000831117156100a257600080fd5b91908080601f016020809104026020016040519081016040528093929190818152602001838380828437600081840152601f19601f8201169050808301925050505050505091929192905050506102d5565b6040518082815260200191505060405180910390f35b61025a6004803603604081101561012057600080fd5b810190808035906020019064010000000081111561013d57600080fd5b82018360208201111561014f57600080fd5b8035906020019184600183028401116401000000008311171561017157600080fd5b91908080601f016020809104026020016040519081016040528093929190818152602001838380828437600081840152601f19601f820116905080830192505050505050509192919290803590602001906401000000008111156101d457600080fd5b8201836020820111156101e657600080fd5b8035906020019184600183028401116401000000008311171561020857600080fd5b91908080601f016020809104026020016040519081016040528093929190818152602001838380828437600081840152601f19601f8201169050808301925050505050505091929192905050506102e6565b6040518080602001828103825283818151815260200191508051906020019080838360005b8381101561029a57808201518184015260208101905061027f565b50505050905090810190601f1680156102c75780820380516001836020036101000a031916815260200191505b509250505060405180910390f35b600060608290508051915050919050565b6060808390506060839050606081518351016040519080825280601f01601f19166020018201604052801561032a5781602001600182028038833980820191505090505b5090506060819050600080905060008090505b85518110156103ad5785818151811061035257fe5b602001015160f81c60f81b83838151811061036957fe5b60200101907effffffffffffffffffffffffffffffffffffffffffffffffffffffffffffff1916908160001a9053508180600101925050808060010191505061033d565b5060008090505b8451811015610424578481815181106103c957fe5b602001015160f81c60f81b8383815181106103e057fe5b60200101907effffffffffffffffffffffffffffffffffffffffffffffffffffffffffffff1916908160001a905350818060010192505080806001019150506103b4565b5081955050505050509291505056fea265627a7a72315820a51b6c62e6262969e64fc5a5d2805c4e54136c73db6d3ecec8e7920b83e1f99a64736f6c63430005100032",
  "source": "pragma solidity >=0.4.21 <0.7.0;\r\n\r\ncontract SuperString {\r\n\r\n    function strLength(string memory str) pure public returns(uint) {\r\n        bytes memory str_bytes = bytes(str);\r\n        return str_bytes.length;        \r\n    }\r\n\r\n    function concatString(string memory strOne, string memory strTwo) pure public returns(string memory) {\r\n        bytes memory str_byte_1 = bytes(strOne);\r\n        bytes memory str_byte_2 = bytes(strTwo);\r\n        string memory str = new string(str_byte_1.length + str_byte_2.length);\r\n        bytes memory str_bytes = bytes(str);\r\n\r\n        uint k = 0;\r\n        for (uint i = 0; i < str_byte_1.length; i++) {\r\n            str_bytes[k] = str_byte_1[i];\r\n            k++;\r\n        }\r\n        for (uint j = 0; j < str_byte_2.length; j++) {\r\n            str_bytes[k] = str_byte_2[j];\r\n            k++;\r\n        }\r\n\r\n        //  convert back to string from byte code\r\n        return string(str_bytes);\r\n    }\r\n\r\n\r\n}\r\n\r\n",
  "sourcePath": "C:/Users/vicku/Documents/GitHub/space-dapps-30/stardate_10/contracts/SuperString.sol",
  "compiler": {
    "name": "solc",
    "version": "0.5.16+commit.9c3226ce.Emscripten.clang"
  },
  "schemaVersion": "3.3.4",
  "updatedAt": "2021-04-12T04:10:58.227Z",
  "networkType": "ethereum",
  "devdoc": {
    "methods": {}
  },
  "userdoc": {
    "methods": {}
  }
}