{
  "contractName": "ComplexStorage",
  "abi": [
    {
      "constant": true,
      "inputs": [
        {
          "internalType": "uint256",
          "name": "",
          "type": "uint256"
        }
      ],
      "name": "storedData",
      "outputs": [
        {
          "internalType": "uint256",
          "name": "",
          "type": "uint256"
        }
      ],
      "payable": false,
      "stateMutability": "view",
      "type": "function"
    },
    {
      "constant": false,
      "inputs": [
        {
          "internalType": "uint256",
          "name": "dataPt",
          "type": "uint256"
        }
      ],
      "name": "add",
      "outputs": [],
      "payable": false,
      "stateMutability": "nonpayable",
      "type": "function"
    },
    {
      "constant": true,
      "inputs": [
        {
          "internalType": "uint256",
          "name": "dataPt",
          "type": "uint256"
        }
      ],
      "name": "get",
      "outputs": [
        {
          "internalType": "uint256",
          "name": "",
          "type": "uint256"
        }
      ],
      "payable": false,
      "stateMutability": "view",
      "type": "function"
    },
    {
      "constant": true,
      "inputs": [],
      "name": "getAll",
      "outputs": [
        {
          "internalType": "uint256[]",
          "name": "",
          "type": "uint256[]"
        }
      ],
      "payable": false,
      "stateMutability": "view",
      "type": "function"
    },
    {
      "constant": true,
      "inputs": [],
      "name": "getLength",
      "outputs": [
        {
          "internalType": "uint256",
          "name": "",
          "type": "uint256"
        }
      ],
      "payable": false,
      "stateMutability": "view",
      "type": "function"
    }
  ],
  "bytecode": "0x608060405234801561001057600080fd5b50610294806100206000396000f3fe608060405234801561001057600080fd5b50600436106100575760003560e01c80631003e2d21461005c578063303771741461008a57806353ed5143146100cc5780639507d39a1461012b578063be1c766b1461016d575b600080fd5b6100886004803603602081101561007257600080fd5b810190808035906020019092919050505061018b565b005b6100b6600480360360208110156100a057600080fd5b81019080803590602001909291905050506101ba565b6040518082815260200191505060405180910390f35b6100d46101db565b6040518080602001828103825283818151815260200191508051906020019060200280838360005b838110156101175780820151818401526020810190506100fc565b505050509050019250505060405180910390f35b6101576004803603602081101561014157600080fd5b8101908080359060200190929190505050610233565b6040518082815260200191505060405180910390f35b610175610253565b6040518082815260200191505060405180910390f35b600081908060018154018082558091505090600182039060005260206000200160009091929091909150555050565b600081815481106101c757fe5b906000526020600020016000915090505481565b6060600080548060200260200160405190810160405280929190818152602001828054801561022957602002820191906000526020600020905b815481526020019060010190808311610215575b5050505050905090565b600080828154811061024157fe5b90600052602060002001549050919050565b6000808054905090509056fea265627a7a72315820e222c927a3a47b44bee18af914adcb5e65e3d84aade1104170b35706bbc022de64736f6c63430005100032",
  "source": "// SPDX-License-Identifier: MIT\npragma solidity >=0.4.21 <0.7.0;\n\ncontract ComplexStorage {\n  uint[] public storedData;\n\n  function add(uint dataPt) public {\n    storedData.push(dataPt);\n  }\n\n  function get(uint dataPt) view public returns(uint) {\n    return storedData[dataPt];\n  }\n\n  function getAll() view public returns(uint[] memory) {\n    return storedData;\n  }\n\n  function getLength() view public returns(uint) {\n    return storedData.length;\n  }\n\n}\n",
  "sourcePath": "C:/Users/vicku/Documents/GitHub/space-dapps-30/stardate_3/contracts/ComplexStorage.sol",
  "compiler": {
    "name": "solc",
    "version": "0.5.16+commit.9c3226ce.Emscripten.clang"
  },
  "schemaVersion": "3.3.4",
  "updatedAt": "2021-03-26T03:23:58.971Z",
  "networkType": "ethereum",
  "devdoc": {
    "methods": {}
  },
  "userdoc": {
    "methods": {}
  }
}