{
  "contractName": "SplitPay",
  "abi": [
    {
      "constant": true,
      "inputs": [],
      "name": "owner",
      "outputs": [
        {
          "internalType": "address",
          "name": "",
          "type": "address"
        }
      ],
      "payable": false,
      "stateMutability": "view",
      "type": "function"
    },
    {
      "constant": false,
      "inputs": [
        {
          "internalType": "address payable[]",
          "name": "toAddresses",
          "type": "address[]"
        },
        {
          "internalType": "uint256[]",
          "name": "amounts",
          "type": "uint256[]"
        }
      ],
      "name": "sendSplitPayment",
      "outputs": [],
      "payable": true,
      "stateMutability": "payable",
      "type": "function"
    }
  ],
  "bytecode": "0x608060405234801561001057600080fd5b506103ad806100206000396000f3fe6080604052600436106100295760003560e01c80638da5cb5b1461002e578063a0fdee3914610085575b600080fd5b34801561003a57600080fd5b506100436101d1565b604051808273ffffffffffffffffffffffffffffffffffffffff1673ffffffffffffffffffffffffffffffffffffffff16815260200191505060405180910390f35b6101cf6004803603604081101561009b57600080fd5b81019080803590602001906401000000008111156100b857600080fd5b8201836020820111156100ca57600080fd5b803590602001918460208302840111640100000000831117156100ec57600080fd5b919080806020026020016040519081016040528093929190818152602001838360200280828437600081840152601f19601f8201169050808301925050505050505091929192908035906020019064010000000081111561014c57600080fd5b82018360208201111561015e57600080fd5b8035906020019184602083028401116401000000008311171561018057600080fd5b919080806020026020016040519081016040528093929190818152602001838360200280828437600081840152601f19601f8201169050808301925050505050505091929192905050506101f6565b005b6000809054906101000a900473ffffffffffffffffffffffffffffffffffffffff1681565b6000809054906101000a900473ffffffffffffffffffffffffffffffffffffffff1673ffffffffffffffffffffffffffffffffffffffff163373ffffffffffffffffffffffffffffffffffffffff161461024f57600080fd5b80518251146102a9576040517f08c379a00000000000000000000000000000000000000000000000000000000081526004018080602001828103825260418152602001806103386041913960600191505060405180910390fd5b60008090505b8251811015610332578281815181106102c457fe5b602002602001015173ffffffffffffffffffffffffffffffffffffffff166108fc8383815181106102f157fe5b60200260200101519081150290604051600060405180830381858888f19350505050158015610324573d6000803e3d6000fd5b5080806001019150506102af565b50505056fe546865206e756d626572206f6620616464726573736573206d757374206265207468652073616d6520617320746865206e756d626572206f6620616d6f756e7473a265627a7a72315820a1108e85ad2cb6c9a373a41f5f4409a5392d0c72e1bb0282a7fac905d5b9002164736f6c63430005100032",
  "source": "// SPDX-License-Identifier: MIT\n//  Splitting Payments among friends\npragma solidity >=0.4.21 <0.7.0;\n\ncontract SplitPay {\n  address public owner;\n\n  // Send paymnets split equally to multiple addresses\n  function sendSplitPayment(address payable[] memory toAddresses, uint[] memory amounts) payable public ownerOnly {\n    require(toAddresses.length == amounts.length, \"The number of addresses must be the same as the number of amounts\");\n    for (uint x = 0; x < toAddresses.length; x++) {\n      toAddresses[x].transfer(amounts[x]);\n    }\n  }\n\n  modifier ownerOnly() {\n    require(msg.sender == owner);\n    _;\n  }\n\n}\n",
  "sourcePath": "C:/Users/vicku/Documents/GitHub/space-dapps-30/stardate_6/contracts/SplitPay.sol",
  "compiler": {
    "name": "solc",
    "version": "0.5.16+commit.9c3226ce.Emscripten.clang"
  },
  "schemaVersion": "3.3.4",
  "updatedAt": "2021-03-29T03:53:40.710Z",
  "networkType": "ethereum",
  "devdoc": {
    "methods": {}
  },
  "userdoc": {
    "methods": {}
  }
}